:1006AA004572726F720048756D203A2025642E25B6
:1006BA00640025006F6B210054656D203A20256483
:1006CA002E25640043002E002E2E002E2E2E0020F2
:0306DA00202000DD
:04081700020C0000CF
:1006DD00E4F50AF50BC3E50B9FEE6480F8E50A64BB
:1006ED008098501DE4F50CF50D050DE50D70020516
:1006FD000C6473450C70F2050BE50B70D8050A8080
:02070D00D422F4
:1007EE00758901758CFF758AF1D28C308DFDC28CA6
:0307FE00C28D2287
:0C080100C2B77F147E001206DDD2B722C1
:0A080D0020B7FD30B7FD20B7FD2233
:10076B00E4FFFEFDFC30B7FD1207EEEF25E0FFEED8
:10077B0033FE30B706EF4401FF800020B7FD0DBDFF
:09078B0000010CED64084C70DC67
:010794002242
:10035F0012073F12080112080D12076B8E168F1726
:10036F0012076B8E108F1112076B8E128F131207DD
:10037F006B8E0E8F0F12076B8E088F09E5172511E5
:10038F00FFE5163510FEE5132FFFE5123EFEE50FD4
:10039F002FFFE50E3EFEEF65097003EE6508600F57
:1003AF007BFF7A0679AAE4FDFF1206710204E0755D
:1003BF0039FF753A06753BB085163C85173D85109C
:1003CF003E85113F7B007A00792212005F7B007A15
:1003DF00007922E4FDFF1206717FFE1207D57BFF25
:1003EF007A0679BC12070F7539FF753A06753BBE51
:1003FF007B007A00792212005F7B007A0079227DE0
:10040F000DE4FF1206717539FF753A06753BC2850B
:10041F00123C85133D850E3E850F3F7B007A007998
:10042F002212005F7B007A007922E4FD7F01120621
:10043F00717FDF1207D57BFF7A0679CE12070F7E09
:10044F00007F147D007B007A007922120517E515D5
:10045F00640445147004F514F515E5154514701171
:10046F007539FF753A06753BD0FB7A007922120079
:10047F005FE5156401451470117539FF753A0675FE
:10048F003BD2FB7A00792212005FE5156402451416
:10049F0070117539FF753A06753BD5FB7A007922D5
:1004AF0012005FE5156403451470117539FF753A35
:1004BF0006753BD9FB7A00792212005F7B007A0028
:1004CF0079227D0D7F011206710515E51570020564
:0B04DF00147FE87E0312065102036246
:10063000C291D2927F017E00120651C2920F120621
:1006400051E9C454F0FFE590540F4FF590D2927FDA
:0106500001A8
:10065100E4FDFCC3ED9FEC9E5015E4FBFA0BBB00DF
:0F066100010AEB64704A70F50DBD00010C80E4D6
:010670002267
:1007BC00A907E954F0FFE590540F4FF590C2901241
:0907CC000630C2927F05020651BD
:1007D500A907E954F0FFE590540F4FF590D2901218
:0907E5000630C2927F05020651A4
:06070F008B3B8A3C893D92
:10071500E4F53EF53FAB3BAA3CA93D853F82853ECE
:10072500831204EAFFFD3395E04D600D1207D505F0
:090735003FE53F70E0053E80DC69
:01073E002298
:100671008F368D378B388A39893AEF3395E04F7051
:1006810008E537540F44808013AF36EF3395E0FE11
:10069100EF64014E700AE537540F44C0FF1207BCE6
:0906A100AB38AA39A93A02070F8F
:10073F007F147E001206517F021207BC7F2812071A
:10074F00BC7F0C1207BC7F061207BC7F011207BCCF
:0C075F007F037E001206517F800207BC61
:030000000205A452
:0C05A400787FE4F6D8FD7581490205EB74
:1004EA00BB010CE58229F582E5833AF583E02250C7
:1004FA0006E92582F8E622BBFE06E92582F8E22211
:0D050A00E58229F582E5833AF583E493222A
:10000300E5452439F8E60545227836300702783984
:10001300E475F00112056E0205432000EB7F2ED23A
:10002300008018EF540F2490D43440D4FF30040BD5
:10003300EF24BFB41A0050032461FFE546600215A4
:10004300460549E5497002054830070D7836E475E1
:10005300F00112056EEF02055C0207957403D207E7
:100063008003E4C207F5458B368A378938E4F546C1
:10007300F548F549E54660077F2012003E80F57597
:1000830047FFC201C200C202C203C205C206C208C0
:1000930012000CFF700D3007057F0012004FAF49AF
:1000A300AE4822B4255FC2D5C20412000CFF24D08F
:1000B300B40A00501A75F00A784630D50508B6FF21
:1000C3000106C6A426F620D5047002D20380D924E3
:1000D300CFB41A00EF5004C2E5D20402024FD2019A
:1000E30080C6D20080C0D20280BCD2D580BAD205ED
:1000F30080B47F2012003E2002077401B546004001
:10010300F1120003FF12003E020077D208D20680EC
:1001130095120003FB120003FA120003F94A4B7015
:100123000679207A037BFF20022EE546602A7E00B3
:100133008E827583001204EA60060EEE654770F046
:10014300C2D5EBC0E0EAC0E0E9C0E0EE120296D00F
:10015300E0F9D0E0FAD0E0FB120543FF60AAEBC060
:10016300E0EAC0E0E9C0E012003ED0E02401F9D0AB
:10017300E03400FAD0E0FBE5470460DCD547D980E2
:10018300877BFF7A027992D202809C791080027970
:1001930008C206C2088008D2D5790A8004790AC247
:1001A300D5E547047002F547E4FAFDFEFF120003AC
:1001B300FC7B08200113120003FD7B1030000A12A0
:1001C3000003FE120003FF7B20EC3382D592D5504F
:1001D30013C3E43000069FFFE49EFEE42001039D69
:1001E300FDE49CFCE4CBF8C201EC700CCFCECDCC8B
:1001F300E824F8F870F38017C3EF33FFEE33FEED16
:1002030033FDEC33FCEB33FB994002FB0FD8E9EBF6
:10021300300105F8D0E0C448B201C0E00AEC4D4E0D
:100223004F78207B0070C2EAB5470040BCC0E012A3
:100233000298D0F0D0E0200104C4C0E0C4B201C0F1
:10024300F0120027D0F0D5F0EB02007712057E0103
:100253001453018E5800E54C00E14201924F019A7C
:0F02630044019A4900FA4301A0550184460184E1
:100272004501844703405000E92D00ED2E01102B6B
:1002820000F123010E2003292A00A94800000108D9
:100292003F3F3F00790AA2D5200314300509B91067
:1002A200020404B9080104A2D52006025001042068
:1002B20002689202B546005034C0E07F2030031934
:1002C2007F30A20272067205500F1202EFC202C202
:1002D20006C205C2087F30800F300503E9C0E01274
:1002E200003E300503D0E0F9D0E0B546CC3005172A
:1002F2007F30B9100C12003E7F583004077F78809F
:1003020003B9080312003E3002057F2D02003E7F32
:10031200202008F87F2B2006F322920280CF286E3D
:10032200756C6C2900D2011200033001F8C2017809
:100332004630D50108F60200A92D50434958120053
:10034200032403B405004001E490033B9312002F01
:0D035200743A12002FD20375460402018E8A
:10051700EF4E6012EF60010EEDBB010B89828A83FB
:10052700F0A3DFFCDEFA2289F05007F709DFFCA908
:0C053700F022BBFEFCF309DFFCA9F0225F
:1005B00002035FE493A3F8E493A34003F68001F2FF
:1005C00008DFF48029E493A3F85407240CC8C3334C
:1005D000C4540F4420C8834004F456800146F6DF1B
:1005E000E4800B0102040810204080900817E47E8C
:1005F000019360BCA3FF543F30E509541FFEE49310
:10060000A360010ECF54C025E060A840B8E493A3D6
:10061000FAE493A3F8E493A3C8C582C8CAC583CA01
:10062000F0A3C8C582C8CAC583CADFE9DEE780BEB9
:01081B0000DC
:10054300BB010689828A83E0225002E722BBFE02B6
:09055300E32289828A83E49322E9
:10055C00BB010689828A83F0225002F722BBFE017E
:02056C00F32278
:10056E00FAE6FB0808E6F925F0F618E6CA3AF6228E
:10057E00D083D082F8E4937012740193700DA3A30C
:10058E0093F8740193F5828883E473740293686020
:06059E00EFA3A3A380DF20
:10079500EFB40A07740D1207A0740A309811A899CE
:1007A500B8130CC2983098FDA899C298B811F630C4
:0707B50099FDC299F599229C
:00000001FF
